:020000040800F2
:1000000088080024990300087954000899520008D0
:100010007154000811050008715F0008000000001D
:100020000000000000000000000000006959000806
:10003000690B000800000000C15500087159000854
:10004000B7030008B7030008B7030008B7030008A8
:10005000B7030008B7030008B7030008B703000898
:10006000B7030008B7030008B7030008B703000888
:10007000B7030008B7030008B7030008B703000878
:10008000B7030008B7030008B7030008B703000868
:10009000C10B0008B7030008D10B0008B703000824
:1000A000B7030008B15B0008B7030008B7030008F6
:1000B000C15B0008B7030008B7030008B7030008D6
:1000C000B7030008B7030008B7030008B703000828
:1000D000B7030008B7030008B7030008B703000818
:1000E000B7030008B703000800000000B7030008CA
:1000F000B7030008B7030008B7030008B7030008F8
:10010000B7030008B7030008B7030008B7030008E7
:10011000B7030008B7030008B7030008B7030008D7
:10012000B7030008B7030008B7030008B7030008C7
:10013000B7030008B7030008B7030008B7030008B7
:1001400000000000000000000000000000000000AF
:10015000B7030008B7030008B7030008B703000897
:10016000B7030008B7030008B7030008B703000887
:10017000B7030008B7030008B70300080000000039
:10018000B7030008B7030008B7030008B703000867
:10019000B7030008B7030008B7030008B703000857
:1001A000B7030008B7030008B70300080000000009
:1001B000B7030008B7030008B7030008B703000837
:1001C000B7030008B70300080000000000000000AB
:1001D0000000000000000000B7030008000000005D
:1001E000000000000000000000000000000000000F
:1001F0000000000000000000B7030008B70300087B
:10020000B7030008B703000800000000B7030008A8
:10021000B7030008B7030008B7030008B7030008D6
:10022000B703000800000000B7030008000000004A
:10023000B7030008B703000800000000B703000878
:10024000B7030008B7030008B7030008B7030008A6
:10025000B7030008B7030008B7030008B703000896
:10026000B7030008B7030008B7030008B703000886
:10027000B7030008B7030008B70300080000000038
:10028000B7030008B7030008B7030008B703000866
:1002900000000000B7030008B703000800000000DA
:1002A00000000000B7030008B7030008B703000808
:1002B000B7030008B7030008B7030008B703000836
:1002C000B7030008B7030008B703000800F002F8FE
:1002D00000F052F814A696E8000CB244B344DA4594
:1002E00001D100F049F8BAE80F000FA696E83000F7
:1002F000A5EB040504EB0607AAEB0704A7F1010729
:100300004FEA15154FEA3414A4F10104AC4201D3AD
:1003100000F032F813F0010F18BFFB1A43F001038D
:1003200000F001F8DBE71847105F0000305F0000C5
:10033000103A24BF78C878C1FAD8520724BF30C811
:1003400030C144BF04680C60704700007047000073
:100350000023002400250026103A28BF78C1FBD8CE
:10036000520728BF30C148BF0B6070471FB505F06A
:100370001FFF1FBD10B510BD00F08EF81146FFF72E
:10038000F5FF05F05DFE00F0ACF803B4FFF7F2FFF7
:1003900003BC00F0B3F800000A4880470A488047D1
:1003A0000A480047FEE7FEE7FEE7FEE7FEE7FEE756
:1003B000FEE7FEE7FEE7FEE705480649064A074B6B
:1003C00070470000990B0008495A0008CD02000848
:1003D000880200248808002488040024880400245B
:1003E00010B5203AC0F00B80B1E81850A0E81850C2
:1003F000B1E81850A0E81850203ABFF4F5AF5FEA12
:10040000027C24BFB1E81850A0E8185044BF18C9B6
:1004100018C0BDE810405FEA827C24BF51F8043B5D
:1004200040F8043B08BF7047D20728BF31F8023BB1
:1004300048BF11F8012B28BF20F8023B48BF00F845
:10044000012B70474FF0000200B5134694469646C4
:10045000203922BFA0E80C50A0E80C50B1F12001D7
:10046000BFF4F7AF090728BFA0E80C5048BF0CC085
:100470005DF804EB890028BF40F8042B08BF7047E3
:1004800048BF20F8022B11F0804F18BF00F8012B55
:100490007047704770477047754600F02BF8AE46BE
:1004A00005006946534620F00700854618B020B580
:1004B000FFF782FFBDE820404FF000064FF0000735
:1004C0004FF000084FF0000BAC46ACE8C009ACE8B8
:1004D000C009ACE8C009ACE8C00921F007018D46AD
:1004E000704710B50446AFF300802046BDE81040C9
:1004F000FFF74BBF00487047100000240149182047
:10050000ABBEFEE7260002007047000000000000BE
:10051000FFE7FEE70000000083B00290019102981F
:1005200000788DF8030001980078029908709DF812
:1005300003000199087003B070470000000000003C
:1005400084B08DED020ACDED010A8DED001A9DED0E
:10055000020A9DED011AB4EE410AF1EE10FA03DA37
:10056000FFE7019803900FE09DED020A9DED001A50
:10057000B4EE410AF1EE10FA03DDFFE700980390B4
:1005800002E002980390FFE79DED030A04B0704774
:1005900083B08DED010ACDED000A9DED010A9DEDC0
:1005A000001AB4EE410AF1EE10FA03DDFFE70098FD
:1005B000029015E09DED010A9DED001AB1EE411A81
:1005C000B4EE410AF1EE10FA07DAFFE79DED000AFA
:1005D000B1EE400A8DED020A02E001980290FFE7B9
:1005E0009DED020A03B0704780B584B000200390EF
:1005F000FFE70398002840F03081FFE740F27000E9
:10060000C2F2004002900298407838B9FFE70299A0
:1006100000208880029800F043FA1AE1029840789E
:1006200001285ED1FFE70298B0F9061000EE101A1B
:10063000B8EEC00A90ED2A1A20EE010A90ED2B1AAE
:1006400020EE010A8DED010A029890F8B40050B135
:10065000FFE79DED010A0298D0ED2E0AFFF798FF03
:100660008DED010AFFE70198029988650298B0F9BB
:100670001E1000EE101AB8EEC00A90ED2A1A20EEF5
:10068000010A90ED2B1A20EE010A80ED170A02985C
:100690004C3004F02DFFB0EE401A0299B1F904007D
:1006A00000EE100AB8EEC00A30EE010ABDEEC00A34
:1006B00010EE100A88800298B0F90410B0F9B0006A
:1006C00000EE101AB8EEC00A01EE100AF8EEC10AE8
:1006D000FFF75EFFBDEEC00A10EE100A0299888097
:1006E000B3E002984078022840F0AA80FFE7029821
:1006F00090ED040A90ED2A2A90ED2B1A20EE020AC2
:1007000020EE010AB0F8A41001EE101AB8EEC11ADA
:1007100020EE010A9FED521A80EE010ABDEEC00ADA
:1007200080ED030A029890ED030AB8EEC00A80ED4E
:10073000210A029890ED090AB8EEC00A80ED220A5B
:10074000029890F8BC0048B3FFE7029890ED210AA8
:1007500090ED2A5A90ED2B4A90ED301A21EE051AB1
:1007600021EE041AB0F8A41002EE101AB8EEC23A44
:1007700021EE031A9FED3A2AC1EE020A90ED311ADA
:1007800021EE051A21EE041A21EE031A81EE021A57
:10079000FFF7D6FE029880ED210AFFE70298783035
:1007A00004F0A6FE029880ED160A0298B0F91E1019
:1007B00000EE101AB8EEC00A90ED2A1A20EE010AD7
:1007C00090ED2B1A20EE010A80ED170A029890F89E
:1007D000C80058B1FFE7029890ED160AD0ED330A31
:1007E000FFF7D6FE029880ED160AFFE702984C301C
:1007F00004F07EFEB0EE401A0299B1F9040000EE5A
:10080000100AB8EEC00A30EE010ABDEEC00A10EEC2
:10081000100A88800298B0F90410B0F9B00000EE18
:10082000101AB8EEC00A01EE100AF8EEC10AFFF77E
:10083000AFFEBDEEC00A10EE100A0299888003E0F8
:10084000029900208880FFE7FFE7029800F028F96E
:10085000FFE7039801300390CBE604B080BD00BFF2
:100860000000B443000000002DE9F0418CB0179F58
:10087000169E159D149CDDF84CE0DDF848C0DDF8AF
:1008800060800B970A9609950894CDF81CE0CDF886
:1008900018C00593049203910290039868B9FFE78A
:1008A000049850B9FFE70298B0F5007F05D9FFE73B
:1008B0000298B0F5027F01D9FFE772E00298A0F537
:1008C00000708DF807009DF80700022801DBFFE7A4
:1008D00067E09DF8070040F27002C2F20042D021AA
:1008E00010FB0120D038009018980178407840EA39
:1008F00001200099088418988178C07840EA012086
:100900000099C88318980179407940EA012000993C
:100910008883009890ED2B0A9FED231AB4EE410ACC
:10092000F1EE10FA13D1FFE718988079009981F859
:1009300030000098B0F91C1000EE101AB8EEC00A92
:100940009FED1B1A20EE010A80ED0B0A11E00098C2
:10095000B0F91C1000EE101AB8EEC00A9FED131A81
:1009600080EE010AB2EE041A20EE010A80ED0B0AB5
:10097000FFE7009991ED2A0A91ED2B1A20EE011A5A
:10098000B1F91E0000EE100AB8EEC00A80EE010AAE
:10099000BDEEC00A10EE100AC883009800F00CF8F3
:1009A000FFE70CB0BDE8F0810000104200401C469B
:1009B000E5FF9F3A0000000010B584B00390039952
:1009C000088C0A8F801A48840398B0F92200B0F18D
:1009D000FF3F06DCFFE70398B0F922004042029097
:1009E00004E00398B0F922000290FFE70298B0F506
:1009F000805F1FDDFFE70398B0F9220001460191F7
:100A0000B0F1FF3F04DCFFE74FF0FF30009008E05B
:100A10000398B0F9221000200029C8BF01200090DF
:100A2000FFE7019B00980399B1F8A42000FB123066
:100A30004884FFE70399B1F92220486A10444862CC
:100A4000039890ED090A90ED2A3A90ED2B2AB8EE22
:100A5000C00A9FED121A20EE010AB0F8A41001EEB0
:100A6000101AB8EE411A21EE031A21EE021A80EE96
:100A7000010A80ED0A0A0399C8690A6A4B6AD1F82B
:100A800028C0D1F82CE00C6B8C64C1F844E0C1F8AC
:100A900040C0CB638A63486304B010BD0000B44318
:100AA00080B58EB00D9004A82421FFF7CBFC002068
:100AB00002908DF80F00059006900821079108908C
:100AC00009900A900B900C900D98007804280CD88F
:100AD000FFE74FF4007004900D9801786FF001006B
:100AE00000EB41008DF80F000BE040F2FF10049086
:100AF0000D9801786FF0090000EB41008DF80F00B0
:100B0000FFE70D9804309DF80F2040F24011C2F22B
:100B100000410191114400F02BF801989DF80F104D
:100B20000844411CFFF7F8FC0D980078042805D014
:100B3000FFE70D98007808280AD1FFE700F00CF8CD
:100B400040F24012C2F2004204A900F0ADFAFFE701
:100B50000EB080BD0000000040F24810C2F200401C
:100B60007047000000000000704700000000000017
:100B700082B0019000910198407800990870019826
:100B800000880099487002B0704700000000000023
:100B900072B6FFE7FEE7000044F60C01C5F602015D
:100BA000086840F002000860FFE744F60400C5F65C
:100BB000020000688004002801D4FFE7F5E77047D1
:100BC00080B540F24810C2F2004000F075FC80BDD4
:100BD00080B540F24810C2F2004000F06DFC80BDCC
:100BE00084B002900298406B009002980068D0F8A0
:100BF00084004FF6FC718843009940EA8100029915
:100C00000968C1F8840002980068D0F8840020F4D4
:100C10007F00029A1168926B40EA0240C1F884009A
:100C20000298816B00980844009002980068D0F800
:100C300088006FF38F00009940EA810002990968EB
:100C4000C1F8880002980068D0F8880020F4FE00FF
:100C5000029A1168D26B40EA0240C1F888000298FB
:100C6000C16B009800EB4100009002980068D0F83A
:100C7000A0006FF38F00009940EA81000299096893
:100C8000C1F8A00002980068D0F8A00020F4FE008F
:100C9000029A1168126C40EA0240C1F8A000029961
:100CA000086C496C009A00FB0120009002980068D3
:100CB000D0F8B0006FF38F00009940EA81000299EC
:100CC0000968C1F8B00002980068D0F8B00020F4BC
:100CD000FE00029A1168926C40EA0240C1F8B0002E
:100CE0000299886CC96C009A00FB01200090029860
:100CF0000068D0F8AC006FF38F00009940EA8100E3
:100D000002990968C1F8AC000299086D496D009A12
:100D100000FB0120009002980068D0F8F0006FF30B
:100D20008F00009940EA810002990968C1F8F0003B
:100D300002980068D0F8F00020F47C10029A116844
:100D4000926D40EA0240C1F8F0000298816D00986F
:100D500000EB4100009002980068D0F8C0006FF3EB
:100D60008F00009940EA810002990968C1F8C0002B
:100D700002980068D0F8C00020F47C10029A116834
:100D8000D26D40EA0240C1F8C00002980068D0F875
:100D9000C00020F07C50029A1168126E40EA026096
:100DA000C1F8C00002994A6B4AF60040C4F2000044
:100DB00000EB8200C86602998A6BC86E00EB820065
:100DC00008670299CA6B086F00EBC2004867029976
:100DD0000A6C4B6C486F5A4300EB8200886702999B
:100DE0008A6CCB6C886F5A4300EB8200C86702990B
:100DF0000A6D4B6DC86F5A4300EB8200C1F880004A
:100E000002998A6DD1F8800000EBC200C1F884001D
:100E10000299CA6D8B6ED1F884005A4300EB8200B0
:100E2000C1F8880002990A6E8B6ED1F888005A4387
:100E300000EB8200C1F890000298D0F890004DF2CB
:100E4000FD31C4F2000188420FD3FFE70299D1F8C7
:100E50009C0040F02000C1F89C000299032081F81A
:100E6000980001208DF80F0017E00298C06E0190E5
:100E7000FFE701980299D1F89010884208D2FFE765
:100E8000019900200860FFE7019804300190F0E725
:100E9000FFE700208DF80F00FFE79DF80F0004B07A
:100EA000704700000000000088B00790069105928E
:100EB00004930698406848B9FFE70698016882687D
:100EC0000069104340EA8140039009E006980168F8
:100ED000826800691043084340F080400390FFE7B8
:100EE0000698D0F820C0C16842698369C06940EAA9
:100EF0000C601843104340EA014002900798826E4C
:100F0000D0F884000499514300EB810001900398CC
:100F100001990860019804300190029801990860D5
:100F200001980430019000200090FFE70098069996
:100F3000CA6846F22821C0F60001895C88420DD2B9
:100F4000FFE705980099405801990860019804301E
:100F50000190FFE7009804300090E7E708B0704781
:100F600080B584B0039001F06FFA0290039801906D
:100F70000198013048B1FFE740F20800C2F200409A
:100F80000178019808440190FFE7FFE701F05CFA5F
:100F90000299401A0199884201D2FFE7F6E704B0AE
:100FA00080BD00000000000085B003900291019216
:100FB000039890F898008DF803009DF8030001282D
:100FC00005D0FFE79DF8030002285DD1FFE70298F6
:100FD00003990968896D084207D1FFE70398016802
:100FE000C86D40F00100C86515E0029803990968D2
:100FF000896D08400299884207D1FFE7039801688C
:10100000C86D40F00200C86504E003980168032041
:10101000C865FFE7FFE79DF809008007002809D5AC
:10102000FFE7019A03980168D1F8E0001043C1F886
:10103000E000FFE79DF809004007002809D5FFE719
:10104000019A03980168D1F8E4001043C1F8E40064
:10105000FFE7FFE702984FF6FF71C3F6CF7100EA92
:10106000010203980168486D10434865029A4AF6E8
:101070001401C4F20001086840EA92700860FFE7BA
:1010800000208DF813000AE00399D1F89C0040F08D
:101090000200C1F89C0001208DF81300FFE79DF8C5
:1010A000130005B07047000080B586B0049003912E
:1010B00002920398406808B9FFE700E0FFE7049850
:1010C00090F89800022845D1FFE704980068D0F80E
:1010D000C00010F07C5F0BD1FFE70499D1F89C00B1
:1010E00040F02000C1F89C0001208DF817003CE082
:1010F00004980068D0F8C400800200280BD5FFE7F0
:101100000499D1F89C0040F40070C1F89C000120C3
:101110008DF8170029E004980068D0F8C400C0F3E7
:101120000440019004980399029A019BFFF7BCFECA
:101130000199012000FA01F1049A1268C2F8D01056
:10114000019988400499C1F89400FFE700208DF8C8
:1011500017000AE00499D1F89C0040F00800C1F89B
:101160009C0001208DF81700FFE79DF8170006B0DE
:1011700080BD00000000000082B00190009102B02C
:10118000704700000000000081B0009001B070477F
:1011900082B00190009102B0704700000000000092
:1011A0008AB0089007910692059300200190089854
:1011B00090F898008DF803009DF80300022840F095
:1011C0006881FFE70798402857D1FFE70898006833
:1011D000D0F8A00010F4FE0F0BD1FFE70899D1F86A
:1011E0009C0040F02000C1F89C0001208DF82700F1
:1011F0005AE108980068D0F8A400400658B9FFE703
:101200000899D1F89C0040F48070C1F89C0001203E
:101210008DF8270048E108980068D0F8A400C0F3D2
:101220000520019008980068D0F8A40000F08071B3
:101230000120B0EB116F16D1FFE708980068D0F8D5
:10124000A0100120B0EBD17F0CD1FFE70198013055
:1012500008990968D1F8A01001F4FE0100EA1140D4
:101260000190FFE7FFE70898426C406F01995143F6
:1012700000EB81000490FFE776E00798412857D102
:10128000FFE708980068D0F8B00010F4FE0F0BD10B
:10129000FFE70899D1F89C0040F02000C1F89C00BD
:1012A00001208DF82700FFE008980068D0F8B4000E
:1012B000400658B9FFE70899D1F89C0040F48070C7
:1012C000C1F89C0001208DF82700EDE00898006827
:1012D000D0F8B400C0F30520019008980068D0F859
:1012E000B40000F080710120B0EB116F16D1FFE760
:1012F00008980068D0F8B0100120B0EBD17F0CD175
:10130000FFE70198013008990968D1F8B01001F49D
:10131000FE0100EA11400190FFE7FFE70898C26C68
:10132000806F0199514300EB81000490FFE71AE0C0
:1013300007980899096D88420BD3FFE70899D1F8FF
:101340009C0040F02000C1F89C0001208DF827008F
:10135000AAE00898426DC06F0799514300EB8100E5
:101360000490FFE7FFE7FFE70498006800F0804083
:10137000069948600698406838B9FFE70498006805
:10138000C0F38A400699086006E00498006820F0DF
:10139000604006990860FFE70498006800F000507C
:1013A000069988600498006800F00040069908617A
:1013B000049804300490049800880699C861049841
:1013C0000068C0F303400699C8600498006800F400
:1013D0008010069948610498006800F4001006998E
:1013E000886104980068C0F3066006990862049852
:1013F0000068C00F0699486204980430049004986D
:10140000039000200290FFE702980699CA6846F20E
:101410002821C0F60001895C88420AD2FFE70398C0
:10142000029A805C05998854FFE702980130029087
:10143000EAE70798402806D1FFE70198089909686C
:10144000C1F8A80021E00798412806D1FFE70198DC
:1014500008990968C1F8B80016E007981F2808D84D
:10146000FFE707990120884008990968C1F89800AA
:1014700009E0079800F01F010120884008990968D9
:10148000C1F89C00FFE7FFE7FFE700208DF8270089
:101490000AE00899D1F89C0040F00800C1F89C00CF
:1014A00001208DF82700FFE79DF827000AB070475C
:1014B00081B0009001B0704780B594B013904AF6A7
:1014C0001000C4F200000068800712904AF6140071
:1014D000C4F200000168129800EA8170129013981B
:1014E0000068006D00F47040119013980068416D21
:1014F00011980840119013980068006D00F00F00DB
:10150000109013980068416D10980840109013983F
:101510000068006D00F0F0000F9013980068416DB6
:101520000F9808400F9013980068006D00F07150FC
:101530000E9013980068416D0E9808400E90139815
:101540000068006D00F060700D9013980068416DA8
:101550000D9808400D9013980068406D0390139803
:101560000068006D01909DF80D00C007B8B1FFE75D
:101570009DF80500C00788B1FFE7FFE713980168F1
:101580004FF4807008654AF61001C4F20001002093
:101590000860FFE71398FFF78BFFFFE7FFE79DF871
:1015A0000D0000F004010020B0EB910F28D0FFE700
:1015B0009DF8050000F004010020B0EB910F1ED053
:1015C000FFE713980068D0F8DC000B9013980068D0
:1015D000D0F8E4100B9808400B90FFE713980168CF
:1015E0004FF4806008654AF61001C4F20001002043
:1015F0000860FFE713980B9900F02AFDFFE7FFE76B
:101600001298B8B1FFE7FFE712984FF6FF71C3F6E3
:10161000CF7108401399096808651298800F4AF63F
:101620001001C4F200010860FFE713981299FFF758
:10163000A3FDFFE71198B8B1FFE7FFE711984FF658
:10164000FF71C3F6CF7108401399096808651198B6
:10165000800F4AF61001C4F200010860FFE71398FA
:10166000119900F005FDFFE71098B8B1FFE7FFE71B
:1016700010984FF6FF71C3F6CF71084013990968AF
:1016800008651098800F4AF61001C4F20001086046
:10169000FFE71398109900F06FFCFFE70F98B8B1BF
:1016A000FFE7FFE70F984FF6FF71C3F6CF710840D1
:1016B0001399096808650F98800F4AF61001C4F263
:1016C00000010860FFE713980F9900F091FCFFE715
:1016D0009DF80D0000F008010020B0EBD10F1BD0E9
:1016E000FFE79DF8050000F008010020B0EBD10FE6
:1016F00011D0FFE7FFE7139801684FF40060086519
:101700004AF61001C4F2000100200860FFE71398B8
:1017100000F0B6FCFFE7FFE79DF80D0000F00201C6
:101720000020B0EB510F28D0FFE79DF8050000F036
:1017300002010020B0EB510F1ED0FFE713980068A4
:10174000D0F8D8000C9013980068D0F8E0100C98EE
:1017500008400C90FFE7139801684FF4007008658B
:101760004AF61001C4F2000100200860FFE7139858
:101770000C9900F075FCFFE7FFE79DF80E0000F004
:1017800008010020B0EBD10F1BD0FFE79DF8060049
:1017900000F008010020B0EBD10F11D0FFE7FFE708
:1017A000139801684FF4002008654AF61001C4F24E
:1017B000000100200860FFE7139800F0D9FBFFE765
:1017C000FFE79DF80E00C007B8B1FFE79DF80600DF
:1017D000C00788B1FFE7FFE7139801684FF4803036
:1017E00008654AF61001C4F2000100200860FFE716
:1017F000139800F029FCFFE7FFE79DF80E0000F0CA
:1018000004010020B0EB910F1BD0FFE79DF806000C
:1018100000F004010020B0EB910F11D0FFE7FFE7CB
:10182000139801684FF4802008654AF61001C4F24D
:10183000000100200860FFE7139800F001FCFFE7BB
:10184000FFE79DF80E0000F002010020B0EB510F01
:101850001FD0FFE79DF8060000F002010020B0EB6A
:10186000510F15D0FFE7FFE7139801684FF40030E0
:1018700008654AF61001C4F2000100200860FFE785
:101880001399D1F89C0040F08000C1F89C00FFE75C
:10189000FFE70D98B8B1FFE7FFE70D984FF6FF712E
:1018A000C3F6CF7108401399096808650D98800F39
:1018B0004AF61001C4F200010860FFE713980D9981
:1018C000FFF766FCFFE70E98D0B1FFE7FFE70E9841
:1018D0004FF6FF71C3F6CF71084013990968086588
:1018E0000E98800F4AF61001C4F200010860FFE76D
:1018F0000E9A1399D1F89C001043C1F89C00FFE7A1
:10190000139800684AF20001C4F20001884240F0D6
:10191000B980FFE71398406880688007002800F0CE
:10192000B080FFE713984068006A00F00F000A904B
:1019300013984068416A0A9808400A9013984068D2
:10194000006A00F03000099013984068416A0998D5
:101950000840099013984068006A00F4C07008902D
:1019600013984068416A08980840089013984068A6
:10197000006A00F4FC40079013984068416A079899
:101980000840079013984068006A00F4F020069021
:1019900013984068416A069808400690139840687A
:1019A000406A029013984068006A00900A9848B113
:1019B000FFE70A9813994968086213980A9900F09A
:1019C00027FBFFE7099848B1FFE709981399496891
:1019D00008621398099900F02BFBFFE79DF80800B7
:1019E00000F040010020B0EB911F1FD0FFE79DF8F1
:1019F000000000F040010020B0EB911F15D0FFE780
:101A000013984068C06B000C059013984068C06B39
:101A100000F03F000490139841684020086213983A
:101A20000599049A00F0FCFAFFE7FFE7089848B12F
:101A3000FFE708981399496808621398089900F01D
:101A4000DFFAFFE7079860B1FFE707981399496845
:101A50000862079A1399D1F89C001043C1F89C00C2
:101A6000FFE7069860B1FFE7069813994968086296
:101A7000069A1399D1F89C001043C1F89C00FFE727
:101A8000FFE7FFE71398D0F89C0020B1FFE7139819
:101A9000FFF77AFBFFE714B080BD000000000000F4
:101AA00080B598B0169046F2CC11C0F6000101A89E
:101AB0004C22FEF795FC169820B9FFE701208DF81F
:101AC0005F00D9E1169800684AF20001C4F20001F3
:101AD000884206D1FFE71699086800F580704860D3
:101AE000FFE716988068B0F5407F01D1FFE7FFE778
:101AF0001698006C08B1FFE7FFE71698806C08B1F4
:101B0000FFE7FFE71698006D08B1FFE7FFE71698BB
:101B1000006E08B1FFE7FFE71699C86D096E08442B
:101B200008B1FFE7FFE7169890F8980040B9FFE783
:101B30001699002081F89900169800F0A1F9FFE7A6
:101B400016980168886920F01000886100F07CFC1C
:101B50001590FFE71698006880690007002817D5E0
:101B6000FFE700F071FC1599401A0B280FD3FFE72F
:101B70001699D1F89C0040F00100C1F89C0016991C
:101B8000032081F8980001208DF85F0074E1E1E7FF
:101B900016980168886940F00100886100F054FCE3
:101BA0001590FFE7169800688069C007B8B9FFE78D
:101BB00000F04AFC1599401A0B280FD3FFE716993D
:101BC000D1F89C0040F00100C1F89C001699032058
:101BD00081F8980001208DF85F004DE1E2E716984A
:101BE0000168886940F0020088611698007C01282D
:101BF00007D1FFE716980168886920F040008861E6
:101C000006E016980168886940F040008861FFE7A7
:101C10001698407C012807D1FFE71698016888696B
:101C200040F48040886106E016980168886920F4D5
:101C300080408861FFE71698807C012807D1FFE784
:101C400016980168886920F48050886106E016982B
:101C50000168886940F480508861FFE71698006841
:101C6000806920F44070169A116892681043886168
:101C700016980168886920F0A400886116980168A8
:101C8000086920F0100008611698C068012807D183
:101C9000FFE716980168886940F0040088612BE02E
:101CA0001698C06830B3FFE71698C068022819D0AC
:101CB000FFE716980168886940F0800088611698EF
:101CC0000168086940F0100008611698C068032890
:101CD00007D1FFE716980168886940F02000886105
:101CE000FFE706E016980168886940F020008861E7
:101CF000FFE700E0FFE7FFE7169A11685369906974
:101D0000D2F81CE0A0F1010C6FF0FF0000EB0E20F8
:101D100040EA4C60126A013A10430022CFF6FF728B
:101D200002EB03421043C86116988068B0F5407F0B
:101D30001CD1FFE7169A1168536A906AD2F82CE01A
:101D400001386FF0FF0C0CEB0E2C40EA0C00D2F8BF
:101D500030C06FF00F0202EB0C1210430022CFF6DE
:101D6000FF7202EB03421043C860FFE71698006E53
:101D700048B1FFE716980168426ED1F8C0001043E1
:101D8000C1F8C000FFE71699C86D096E084480B11C
:101D9000FFE716980068D0F8C80020F00700169AF0
:101DA0001168936E01AA52F823201043C1F8C800AD
:101DB000FFE71698006C80B1FFE716980068D0F82E
:101DC000BC0020F00700169A1168536C01AA52F863
:101DD00023201043C1F8BC00FFE71698806C88B13F
:101DE000FFE716980068D0F8BC0020F07000169A43
:101DF0001168D36C01AA52F8232040EA0210C1F8FE
:101E0000BC00FFE71698006D88B1FFE716980068E0
:101E1000D0F8BC0020F4E060169A1168536D01AA56
:101E200052F8232040EA0220C1F8BC00FFE71698D0
:101E300000684AF20001C4F20001884207D1FFE7BE
:101E400016984168886820F003008860FFE71699BB
:101E50000020C1F894001699C1F89C001699012041
:101E600081F898001698FEF7BBFE8DF853009DF898
:101E700053008DF85F00FFE79DF85F0018B080BD4C
:101E800080B5BAB0399000203890379036903590B0
:101E9000349006A8B821FEF7D5FA399800684AF2BE
:101EA0000041C4F20001884260D1FFE700200790A2
:101EB0004FF40041069102210891102209920A91E3
:101EC00005220B920C91C0210D910E900F904FF0B6
:101ED0000050219006A800F073FC18B1FFE7FEF750
:101EE00057FEFFE7FFE744F2EC40C5F60200016849
:101EF00041F480710160006800F4807005900598DD
:101F0000FFE7FFE744F2E040C5F60200016841F058
:101F100002010160006800F0020004900498FFE7ED
:101F20004FF44050349002203590002002903690BB
:101F300037900920389040F20040C5F6020034A9DD
:101F400000F0A2F8029A142000900521019100F0FF
:101F5000C3FB009800F0B4FB0199029A162003908D
:101F600000F0BAFB039800F0ABFBFFE73AB080BD8E
:101F700081B0009001B070472DE9F04395B0149006
:101F80001391149800684AF20041C4F2000188429B
:101F900029D1FFE71498402109AA07ABFFF700F900
:101FA00000BBFFE709980A990B9A0C9BDDF834C037
:101FB0000E9C0F9D109E119FDDF84880EE460DF19E
:101FC0001C09CEF81890CEF81480CEF81070CEF818
:101FD0000C60CEF80850CEF80440CEF800C0FEF7F2
:101FE00043FCFFE7FFE715B0BDE8F0830000000009
:101FF00082B00190009102B0704700000000000024
:1020000082B00190009102B0704700000000000013
:1020100082B00190009102B0704700000000000003
:1020200083B002900191009203B07047000000005D
:1020300082B00190009102B07047000000000000E3
:1020400081B0009001B0704781B0009001B070473E
:1020500082B00190009102B07047000000000000C3
:1020600082B00190009102B07047000000000000B3
:1020700082B00190009102B07047000000000000A3
:1020800081B0009001B070478FB00E900D9100208C
:102090000C908020C5F600000990FFE70D980068BD
:1020A0000C99C840002800F0CD81FFE70D9800682A
:1020B0000C9A0121914008400B900B98002800F0E9
:1020C000BD81FFE70D98406800F00300012807D0AC
:1020D000FFE70D98406800F0030002282FD1FFE7CA
:1020E0000E9880680A900C984100032000FA01F1D4
:1020F0000A9888430A900D98C0680C99490000FA24
:1021000001F10A9808430A900A980E9988600E987F
:1021100040680A900C99012000FA01F10A9888435E
:102120000A900D984068C0F300100C9900FA01F174
:102130000A9808430A900A980E994860FFE70D989C
:10214000406800F0030003280CD1FFE70D984068B9
:1021500000F0030003281DD1FFE70D9880680128D7
:1021600018D0FFE70E98C0680A900C984100032031
:1021700000FA01F10A9888430A900D9880680C993A
:10218000490000FA01F10A9808430A900A980E994A
:10219000C860FFE70D98406800F00300022826D1D0
:1021A000FFE70E980C996FF0030202EA5101084410
:1021B000006A0A900C9800F0070081000F2000FAD6
:1021C00001F10A9888430A900D9800690C9901F072
:1021D0000701890000FA01F10A9808430A900A9859
:1021E0000E990C9B02EA530211440862FFE70E9815
:1021F00000680A900C984100032000FA01F10A9847
:1022000088430A900D98406800F003000C9949003B
:1022100000FA01F10A9808430A900A980E9908609A
:102220000D9880798007002800F00781FFE7FFE71D
:1022300044F2F440C5F60200016841F00201016079
:10224000006800F0020008900898FFE70C9820F062
:10225000030040F20841C5F6000140580A900C986E
:1022600000F0030081000F2000FA01F10A98884372
:102270000A900E980021C5F60201884203D1FFE7BB
:10228000002007906CE00E9840F20041C5F6020174
:10229000884203D1FFE7012006905EE00E9840F6E9
:1022A0000001C5F60201884203D1FFE70220059034
:1022B00050E00E9840F60041C5F60201884203D175
:1022C000FFE70320049042E00E9841F20001C5F6BA
:1022D0000201884203D1FFE70420039034E00E9806
:1022E00041F20041C5F60201884203D1FFE7052013
:1022F000029026E00E9841F60001C5F602018842E0
:1023000003D1FFE70620019018E00E9841F6004146
:10231000C5F60201884203D1FFE7072000900AE0DA
:102320000E9942F20042C5F602020A20914208BF0D
:1023300009200090FFE700980190FFE701980290C4
:10234000FFE702980390FFE703980490FFE70498E3
:102350000590FFE705980690FFE706980790FFE7CE
:1023600007980C9901F00301890000FA01F10A981D
:1023700008430A900A980C9921F0030140F20842A0
:10238000C5F6000288504FF0B04000680A900B99E3
:102390000A9888430A900D988079C006002805D5D0
:1023A000FFE70B990A9808430A90FFE70A984FF055
:1023B000B04108600420C5F6000000680A900B993F
:1023C0000A9888430A900D9880798006002805D5E0
:1023D000FFE70B990A9808430A90FFE70A9804213F
:1023E000C5F600010860099840680A900B990A98A0
:1023F00088430A900D9880798007002805D5FFE76B
:102400000B990A9808430A90FFE70A9809994860CF
:10241000099800680A900B990A9888430A900D98C9
:102420008079C00728B1FFE70B990A9808430A9002
:10243000FFE70A9809990860FFE7FFE70C98013069
:102440000C902BE60FB0704740F28020C2F20040A3
:10245000006870470000000040F20800C2F200402F
:10246000027840F28021C2F20041086810440860FE
:10247000704700000000000080B582B0032000F02B
:1024800043F901F065FC44F21842C5F602021168F6
:10249000C1F3032346F21821C0F60001CB5C03F020
:1024A0001F03D84000900098126802F00F02895C68
:1024B00001F01F01C84040F20401C2F2004108606F
:1024C000009840F20001C2F2004108600F2000F0C5
:1024D00013F820B1FFE701208DF8070005E000F0B8
:1024E000DBF800208DF80700FFE79DF8070002B039
:1024F00080BD00000000000080B590B00E900E98E6
:102500000F2810D8FFE70E9919200190002200F043
:10251000E3F8019800F0D4F80E9840F20C01C2F2F2
:102520000041086003E001208DF83F0043E0FFE731
:1025300044F2F040C5F60200016841F0010101607B
:10254000006800F0010002900298FFE706A803A9C6
:1025500001F07AFB01F0E8FB4000059005984DF68C
:102560008361C4F21B31A0FB01014FF0FF3000EB8F
:102570009140049040F2E810C2F200400021C4F201
:102580000101016040F2E731C1600499416000211E
:102590000161816002F038FB48B9FFE740F2E810C2
:1025A000C2F2004002F0A8FB8DF83F0003E00120DA
:1025B0008DF83F00FFE79DF83F0010B080BD0000A0
:1025C00010B581B00090009840784EF69851CEF248
:1025D000000108604EF6A051CEF20001086820F01C
:1025E00001000860009840684EF69C52CEF200024E
:1025F0001060DDF800E09EF80C0000079EF80B204C
:1026000040EA02609EF800209EF808309EF809C05B
:102610009EF80A4040EAC4409EF80D4040EA8440DB
:102620009EF80E4040EA44409EF80FE040EA0E401B
:1026300040EA0C2040EA43001043086001B010BD9E
:10264000BFF35F8F4EF62451CEF20001086820F4EC
:10265000803008604EF69451CEF2000100200860F0
:10266000704700000000000081B00090009840F02A
:1026700001004EF69451CEF2000108604EF624514E
:10268000CEF20001086840F480300860BFF34F8F3D
:10269000BFF36F8F01B0704781B0FFE744F2F440A1
:1026A000C5F60200016841F002010160006800F017
:1026B000020000900098FFE701B0704700000000A2
:1026C00080B582B0ADF80600BDF9060003F054FCF9
:1026D00002B080BD0000000080B586B0ADF81600E5
:1026E0000491039203F060FC0290BDF91600019082
:1026F00002980499039A02F0C3FE0146019803F080
:102700005BFC06B080BD000080B582B001900198EE
:1027100003F076FC02B080BD80B584B0029044F630
:102720000C00C5F60200006800F004010020B0EBC8
:10273000910F13D1FFE744F60C00C5F602000068C4
:1027400000F007000299884204D0FFE701208DF8CD
:102750000F002EE000208DF80F002AE044F60C0157
:10276000C5F60201086820F00700029A10430860CD
:10277000FFF76AFE0190FFE744F60400C5F6020089
:10278000006800F400510020B0EB513F0DD1FFE78D
:10279000FFF75AFE0199401AB0F57A7F04D9FFE796
:1027A00001208DF80F0004E0E6E700208DF80F000F
:1027B000FFE79DF80F0004B080BD0000000000009E
:1027C00080B59AB0189000208DF857008DF856000B
:1027D0001898C0780007002848D5FFE71898406E81
:1027E000149078B1FFE71498B0F5801F13D0FFE77D
:1027F0001498B0F5001F16D0FFE71498B0F5401FED
:1028000019D019E044F22C41C5F60201086840F4E1
:102810000030086014E018980830022102F0D4FE5D
:102820008DF857000CE018982830022102F0B4FF10
:102830008DF8570004E003E001208DF85700FFE712
:102840009DF8570060B9FFE744F25041C5F6020118
:10285000086820F44010189A526E1043086004E093
:102860009DF857008DF85600FFE7FFE7189840786D
:10287000C007002840D0FFE71898806D1390042807
:1028800020D81399DFE801F0030C141C1D0044F25A
:102890002C41C5F60201086840F40030086015E0DC
:1028A00018980830002102F08FFE8DF857000DE0D7
:1028B00018982830002102F06FFF8DF8570005E0CE
:1028C00004E003E001208DF85700FFE79DF8570072
:1028D00060B9FFE744F25041C5F60201086820F0F4
:1028E0000700189A926D1043086004E09DF85700A5
:1028F0008DF85600FFE7FFE718984078400700285A
:1029000056D5FFE71898D0F8A4001290C8B1FFE799
:102910001298B0F5001F1DD0FFE71298B0F5800F98
:1029200020D0FFE71298B0F5C00F23D0FFE7129830
:10293000B0F5000F1FD0FFE71298B0F5200F1BD0A5
:102940001BE044F22C41C5F60201086840F4003057
:10295000086016E018980830002102F035FE8DF866
:1029600057000EE018982830002102F015FF8DF86E
:10297000570006E005E004E003E001208DF8570071
:10298000FFE79DF8570068B9FFE744F25841C5F6E4
:102990000201086820F46000189AD2F8A4201043BD
:1029A000086004E09DF857008DF85600FFE7FFE748
:1029B000189840780007002856D5FFE71898D0F8F7
:1029C000A8001190C8B1FFE71198B0F1807F1DD029
:1029D000FFE71198B0F1007F20D0FFE71198B0F128
:1029E000407F23D0FFE71198B0F1806F1FD0FFE741
:1029F0001198B0F1A06F1BD01BE044F22C41C5F63A
:102A00000201086840F40030086016E018980830A9
:102A1000002102F0D9FD8DF857000EE018982830FB
:102A2000002102F0B9FE8DF8570006E005E004E051
:102A300003E001208DF85700FFE79DF8570068B9C3
:102A4000FFE744F25841C5F60201086820F0E06053
:102A5000189AD2F8A8201043086004E09DF85700A7
:102A60008DF85600FFE7FFE71898C0788007002828
:102A70003ED5FFE71898C06C1090F0B1FFE71098B2
:102A8000102808D0FFE7109820280DD0FFE71098F5
:102A9000302811D012E044F22C41C5F6020108683A
:102AA00040F4003008600DE018980830022102F070
:102AB0008BFD8DF8570005E004E003E001208DF860
:102AC0005700FFE79DF8570060B9FFE744F24C411B
:102AD000C5F60201086820F03000189AD26C104345
:102AE000086004E09DF857008DF85600FFE7FFE707
:102AF00018984078C00600284ED5FFE71898C06D9A
:102B00000F90A0B1FFE70F98B0F5805F18D0FFE7F6
:102B10000F98B0F5005F1BD0FFE70F98B0F5405F4E
:102B20001ED0FFE70F98B0F5804F1AD01AE044F29C
:102B30002C41C5F60201086840F40030086015E039
:102B400018980830002102F03FFD8DF857000DE085
:102B500018982830002102F01FFE8DF8570005E07C
:102B600004E003E001208DF85700FFE79DF85700CF
:102B700060B9FFE744F25041C5F60201086820F44D
:102B8000E040189AD26D1043086004E09DF85700A9
:102B90008DF85600FFE7FFE7189840788006002878
:102BA0004CD5FFE71898006E0E90C8B1FFE70E985D
:102BB000B0F5803F15D0FFE70E98B0F5003F18D074
:102BC000FFE70E98B0F5403F1BD0FFE70E98B0F539
:102BD000802F17D0FFE70E98B0F5A02F13D013E089
:102BE00016E018980830012102F0EEFC8DF857002D
:102BF0000EE018982830012102F0CEFD8DF8570024
:102C000006E005E004E003E001208DF85700FFE74F
:102C10009DF8570060B9FFE744F25041C5F6020144
:102C2000086820F4E020189A126E1043086004E04F
:102C30009DF857008DF85600FFE7FFE71898407899
:102C4000400600284ED5FFE71898D0F8AC000D904C
:102C5000C8B1FFE70D98B0F1805F15D0FFE70D9880
:102C6000B0F1005F18D0FFE70D98B0F1405F1BD0C6
:102C7000FFE70D98B0F1804F17D0FFE70D98B0F146
:102C8000A04F13D013E016E018980830012102F08D
:102C90009BFC8DF857000EE018982830012102F0B7
:102CA0007BFD8DF8570006E005E004E003E001201D
:102CB0008DF85700FFE79DF8570068B9FFE744F229
:102CC0005841C5F60201086820F0E040189AD2F891
:102CD000AC201043086004E09DF857008DF85600C2
:102CE000FFE7FFE718984078000600283BD5FFE78C
:102CF0001898C06E0C90D8B1FFE70C98B0F1805FC7
:102D000005D0FFE70C98B0F1005F09D011E044F264
:102D10002C41C5F60201086840F4003008600CE060
:102D200018980830012102F04FFC8DF8570004E09C
:102D300003E001208DF85700FFE79DF8570060B9C8
:102D4000FFE744F25041C5F60201086820F0405008
:102D5000189AD26E1043086004E09DF857008DF871
:102D60005600FFE7FFE71898C078C007002837D063
:102D7000FFE71898806C0B90032817D80B99DFE8B1
:102D800001F014020B1344F22C41C5F6020108684D
:102D900040F4003008600DE018980830022102F07D
:102DA00013FC8DF8570005E004E003E001208DF8E6
:102DB0005700FFE79DF8570060B9FFE744F24C4128
:102DC000C5F60201086820F00300189A926C1043BF
:102DD000086004E09DF857008DF85600FFE7FFE714
:102DE000189880784006002840F1B480FFE744F648
:102DF0000001C5F60201086840F480700860FFF722
:102E000023FB1690FFE744F60000C5F602000068B9
:102E1000C00500280CD4FFE7FFF716FB1699401AEF
:102E2000652804D3FFE703208DF8570000E0EAE7A8
:102E30009DF85700002840F08780FFE744F270407B
:102E4000C5F60200006800F440701899D1F8B0107F
:102E500001F44071884213D0FFE744F27041C5F697
:102E60000201086820F440701790086840F4803030
:102E70000860086820F48030086017980860FFE751
:102E80001898D0F8B000B0F5807F1FD1FFE7FFF7AA
:102E9000DBFA1690FFE744F27040C5F602000068C6
:102EA00000F002010020B0EB510F0ED1FFE7FFF759
:102EB000CBFA1699401A41F28931884204D3FFE7D0
:102EC00003208DF8570000E0E5E7FFE79DF8570085
:102ED000A0BBFFE7FFE71898D0F8B00000F44070FF
:102EE000B0F5407F13D1FFE744F21041C5F602016F
:102EF000086820F47C50189AD2F8B0204FF6F043BE
:102F0000C0F6FF731A4040EA1210086008E044F26D
:102F10001041C5F60201086820F47C500860FFE704
:102F20001898D0F8B0206FF31F3244F27041C5F604
:102F30000201086810430860FFE704E09DF85700AD
:102F40008DF85600FFE704E09DF857008DF8560015
:102F5000FFE7FFE718980068C007002800F04C80E2
:102F6000FFE71898806F0A9028282BD80A99DFE885
:102F700001F0152929292929292916292929292949
:102F800029291E29292929292929262929292929BF
:102F900029292729292929292929280016E01898CB
:102FA0000830012102F010FB8DF857000EE0189850
:102FB0002830012102F0F0FB8DF8570006E005E013
:102FC00004E003E001208DF85700FFE79DF857006B
:102FD00060B9FFE744F25441C5F60201086820F0E9
:102FE0003800189A926F1043086004E09DF857006B
:102FF0008DF85600FFE7FFE7189800788007002853
:1030000039D5FFE71898406F0990052819D8099914
:10301000DFE801F003040C14151616E018980830C8
:10302000012102F0D1FA8DF857000EE018982830EF
:10303000012102F0B1FB8DF8570006E005E004E045
:1030400003E001208DF85700FFE79DF8570060B9B5
:10305000FFE744F25441C5F60201086820F007007A
:10306000189A526F1043086004E09DF857008DF8DD
:103070005600FFE7FFE718980078400700283BD587
:10308000FFE71898D0F890000890052819D80899FB
:10309000DFE801F003040C14151616E01898083048
:1030A000012102F091FA8DF857000EE018982830AF
:1030B000012102F071FB8DF8570006E005E004E005
:1030C00003E001208DF85700FFE79DF8570068B92D
:1030D000FFE744F25841C5F60201086820F00700F6
:1030E000189AD2F890201043086004E09DF8570029
:1030F0008DF85600FFE7FFE7189800788006002853
:103100004ED5FFE71898D0F88C000790C8B1FFE7BC
:103110000798B0F1805F15D0FFE70798B0F1005F26
:1031200018D0FFE70798B0F1405F1BD0FFE7079882
:10313000B0F1804F17D0FFE70798B0F1A04F13D040
:1031400013E016E018980830002102F03DFA8DF8DF
:1031500057000EE018982830022102F01DFB8DF870
:10316000570006E005E004E003E001208DF8570079
:10317000FFE79DF8570068B9FFE744F25441C5F6F0
:103180000201086820F0E040189AD2F88C20104321
:10319000086004E09DF857008DF85600FFE7FFE750
:1031A00018980078400600284ED5FFE71898D0F808
:1031B00098000690C8B1FFE70698B0F5806F15D06B
:1031C000FFE70698B0F5006F18D0FFE70698B0F556
:1031D000406F1BD0FFE70698B0F5805F17D0FFE780
:1031E0000698B0F5A05F13D013E016E018980830E9
:1031F000002102F0E9F98DF857000EE01898283008
:10320000022102F0C9FA8DF8570006E005E004E05B
:1032100003E001208DF85700FFE79DF8570068B9DB
:10322000FFE744F25841C5F60201086820F4E05077
:10323000189AD2F898201043086004E09DF85700CF
:103240008DF85600FFE7FFE7189800780006002881
:103250004ED5FFE71898D0F89C000590C8B1FFE75D
:103260000598B0F5005F15D0FFE70598B0F5804FE1
:1032700018D0FFE70598B0F5C04F1BD0FFE70598C1
:10328000B0F5004F17D0FFE70598B0F5204F13D0E9
:1032900013E016E018980830002102F095F98DF837
:1032A00057000EE018982830022102F075FA8DF8C8
:1032B000570006E005E004E003E001208DF8570028
:1032C000FFE79DF8570068B9FFE744F25841C5F69B
:1032D0000201086820F46040189AD2F89C2010433C
:1032E000086004E09DF857008DF85600FFE7FFE7FF
:1032F000189800780007002820D5FFE71898D0F824
:103300008000B0F5805F0CD1FFE7189828300221CB
:1033100002F042FA20B1FFE701208DF85600FFE7E6
:10332000FFE744F25441C5F60201086820F440501A
:10333000189AD2F8802010430860FFE718980078A8
:10334000C006002820D5FFE71898D0F89400B0F503
:10335000807F0CD1FFE718982830022102F01CFA78
:1033600020B1FFE701208DF85600FFE7FFE744F2A8
:103370005841C5F60201086820F44070189AD2F846
:10338000942010430860FFE7189880780007002811
:103390003CD5FFE71898D0F8A000049050B1FFE7A3
:1033A0000498B0F5803F0DD0FFE70498B0F5003FDA
:1033B00010D010E018980830002102F005F98DF8BF
:1033C00057000CE018982830022102F0E5F98DF83A
:1033D000570004E003E001208DF85700FFE79DF857
:1033E000570068B9FFE744F25841C5F60201086882
:1033F00020F44030189AD2F8A0201043086004E06E
:103400009DF857008DF85600FFE7FFE71898807881
:10341000400700283FD5FFE71898D0F884000390B4
:10342000B0F5801F0AD0FFE70398B0F5001F0ED05B
:10343000FFE70398B0F5401F11D011E044F22C4192
:10344000C5F60201086840F4003008600CE01898E6
:103450002830012102F0A0F98DF8570004E003E0C4
:1034600001208DF85700FFE79DF8570068B9FFE786
:1034700044F25441C5F60201086820F44010189A3D
:10348000D2F884201043086004E09DF857008DF8BE
:103490005600FFE7FFE718988078C007A8B3FFE75A
:1034A0001898006D029028B1FFE70298B0F5803FB0
:1034B00009D010E044F22C41C5F60201086840F43E
:1034C000003008600BE018980830022102F07CF808
:1034D0008DF8570003E001208DF85700FFE79DF8B5
:1034E000570060B9FFE744F24C41C5F60201086895
:1034F00020F48030189A126D1043086004E09DF8A3
:1035000057008DF85600FFE7FFE71898C07880064F
:1035100000280CD5FFE718982830022102F03CF96A
:1035200020B1FFE701208DF85600FFE7FFE718986C
:103530008078800700283AD5FFE71898C06F01907F
:10354000D0B1FFE70198B0F5807F0AD0FFE701987E
:10355000B0F5007F0ED0FFE70198B0F5407F0AD0AC
:103560000BE044F22C41C5F60201086840F400303B
:10357000086006E005E004E003E001208DF8570054
:10358000FFE79DF8570060B9FFE744F25441C5F6E4
:103590000201086820F44070189AD26F1043086046
:1035A00004E09DF857008DF85600FFE7FFE71898F4
:1035B0008078C00600280CD5FFE744F25041C5F6DC
:1035C0000201086820F00040189A126F104308604A
:1035D000FFE718988078800600280CD5FFE744F2B2
:1035E0005041C5F60201086820F08070189A926E6A
:1035F00010430860FFE71898C0784006002811D5EE
:10360000FFE7FFE744F21041C5F60201086820F425
:10361000004008601898D0F8B4200868104308608B
:10362000FFE7FFE71898C078000600280CD5FFE7F1
:1036300044F24C41C5F60201086820F04050189A47
:10364000526D10430860FFE7189880780006002844
:103650000DD5FFE744F25441C5F60201086820F495
:103660004000189AD2F8882010430860FFE71898A5
:103670000079C00790B1FFE718980830002101F0E9
:10368000A3FF8DF857009DF8570008B9FFE704E045
:103690009DF857008DF85600FFE7FFE7189800796E
:1036A0008007002812D5FFE718980830012101F0A3
:1036B0008BFF8DF857009DF8570008B9FFE704E02D
:1036C0009DF857008DF85600FFE7FFE7189800793E
:1036D0004007002812D5FFE718980830022101F0B2
:1036E00073FF8DF857009DF8570008B9FFE704E015
:1036F0009DF857008DF85600FFE7FFE7189800790E
:103700000007002812D5FFE718982830002102F0A2
:1037100043F88DF857009DF8570008B9FFE704E01B
:103720009DF857008DF85600FFE7FFE718980079DD
:10373000C006002812D5FFE718982830012102F0B2
:103740002BF88DF857009DF8570008B9FFE704E003
:103750009DF857008DF85600FFE7FFE718980079AD
:103760008006002812D5FFE718982830022102F0C1
:1037700013F88DF857009DF8570008B9FFE704E0EB
:103780009DF857008DF85600FFE7FFE79DF85600BB
:1037900020B9FFE700208DF8670003E001208DF8D5
:1037A0006700FFE79DF867001AB080BD00000000C9
:1037B00080B586B004900391049820B9FFE70120FA
:1037C0008DF817003CE2039842F20001C5F2002197
:1037D000096801F00F01884216D9FFE742F20000A4
:1037E000C5F20020016821F00F01039A1143016026
:1037F000006800F00F000399884204D0FFE7012021
:103800008DF817001CE2FFE70498007840070028B5
:1038100019D5FFE70498006944F21841C5F6020182
:10382000096801F0700188420CD9FFE744F21841A1
:10383000C5F60201086820F07000049A126910436E
:103840000860FFE7FFE7049800780007002819D513
:10385000FFE70498406944F21C41C5F6020109687B
:1038600001F0700188420CD9FFE744F21C41C5F613
:103870000201086820F07000049A52691043086041
:10388000FFE7FFE704980078C006002819D5FFE796
:103890000498806944F21C41C5F60201096801F4EC
:1038A000E06188420CD9FFE744F21C41C5F60201F1
:1038B000086820F4E060049A926910430860FFE70A
:1038C000FFE7049800788006002819D5FFE70498E0
:1038D000C06944F22041C5F60201096801F0700197
:1038E00088420CD9FFE744F22041C5F6020108687E
:1038F00020F07000049AD26910430860FFE7FFE7E8
:10390000049800788007002819D5FFE70498C0685C
:1039100044F21841C5F60201096801F00F0188421E
:103920000CD9FFE744F21841C5F60201086820F0FF
:103930000F00049AD26810430860FFE7FFE704987D
:103940000078C007002800F08C80FFE744F218419F
:10395000C5F60201086820F47060049A926810436A
:10396000086004984068022811D1FFE744F2004043
:10397000C5F60200006800F400310020B0EB514FA2
:1039800004D1FFE701208DF8170059E13EE00498CB
:103990004068032811D1FFE744F20040C5F6020059
:1039A000006800F000710020B0EB516F04D1FFE718
:1039B00001208DF8170043E127E0049840680128B2
:1039C00011D1FFE744F20040C5F60200006800F4A0
:1039D00080710020B0EB112F04D1FFE701208DF89A
:1039E00017002DE110E044F20040C5F60200006827
:1039F00000F004010020B0EB910F04D1FFE701209B
:103A00008DF817001CE1FFE7FFE7FFE744F21041E4
:103A1000C5F60201086820F00700049A52681043B6
:103A20000860FEF711FD0190FFE744F21040C5F673
:103A30000200006800F0380004994968B0EBC10F3B
:103A40000ED0FFE7FEF700FD0199401A41F28931DF
:103A5000884204D3FFE703208DF81700F0E0E4E785
:103A6000FFE7049800788007002819D5FFE704983D
:103A7000C06844F21841C5F60201096801F00F015F
:103A800088420CD2FFE744F21841C5F602010868EB
:103A900020F00F00049AD26810430860FFE7FFE7A8
:103AA000039842F20001C5F20021096801F00F01FC
:103AB000884216D2FFE742F20000C5F200200168FA
:103AC00021F00F01039A11430160006800F00F001C
:103AD0000399884204D0FFE701208DF81700AFE07A
:103AE000FFE7049800784007002819D5FFE70498FD
:103AF000006944F21841C5F60201096801F070013D
:103B000088420CD2FFE744F21841C5F6020108686A
:103B100020F07000049A126910430860FFE7FFE785
:103B2000049800780007002819D5FFE70498406939
:103B300044F21C41C5F60201096801F07001884297
:103B40000CD2FFE744F21C41C5F60201086820F0E0
:103B50007000049A526910430860FFE7FFE7049879
:103B60000078C006002819D5FFE70498806944F260
:103B70001C41C5F60201096801F4E06188420CD2DB
:103B8000FFE744F21C41C5F60201086820F4E0603A
:103B9000049A926910430860FFE7FFE704980078F1
:103BA0008006002819D5FFE70498C06944F2204137
:103BB000C5F60201096801F0700188420CD2FFE7E6
:103BC00044F22041C5F60201086820F07000049A12
:103BD000D26910430860FFE7FFE700F0B9F844F24C
:103BE0001842C5F602021168C1F3032346F21821F8
:103BF000C0F60001CB5C03F01F03D8400090009892
:103C0000126802F00F02895C01F01F01C84040F207
:103C10000401C2F200410860009840F20001C2F2C3
:103C20000041086040F20C00C2F200400068FEF75C
:103C300063FC8DF80B009DF80B008DF81700FFE773
:103C40009DF8170006B080BD82B0019000910199E7
:103C50003F20086044F21040C5F60200006800F002
:103C600007000199486044F21840C5F60200016857
:103C700001F47061019A9160016801F00F01019AED
:103C8000D160006800F070000199086144F21C40A6
:103C9000C5F60200016801F07001019A51610068E7
:103CA00000F4E0600199886144F22040C5F602000A
:103CB000006800F070000199C86142F20000C5F28E
:103CC0000020006800F00F000099086002B0704703
:103CD00080B582B000F03CF844F21842C5F602020A
:103CE0001168C1F3032346F21821C0F60001CB5C32
:103CF00003F01F03D84001900198126802F00F02F0
:103D0000895C01F01F0120FA01F140F20400C2F2C7
:103D100000400160019940F20002C2F200421160CD
:103D2000006802B080BD000080B5FFF7D1FF44F20B
:103D30001C41C5F602010968C1F3022246F21821AE
:103D4000C0F60001895C01F01F01C84080BD000081
:103D50008AB044F21040C5F60200006800F0380056
:103D600001460191182800F25F810199DFE811F006
:103D700019005C015C015C015C015C015C015C019F
:103D80003A005C015C015C015C015C015C015C016E
:103D900040005C015C015C015C015C015C015C0158
:103DA000460044F20040C5F60200006800F0200121
:103DB0000020B0EB511F0ED0FFE744F20040C5F6E3
:103DC00002000068C0F3C10149F20000C0F2D03027
:103DD000C840029005E049F20000C0F2D0300290E5
:103DE000FFE727E140F60010C0F23D00029021E11C
:103DF00047F64000C0F27D1002901BE144F22840DB
:103E0000C5F60200016801F0030108910068C0F3E3
:103E10000510079044F22C40C5F60200006800F03F
:103E200001000690069844F23441C5F60201096883
:103E300089B2C908484300EE100AB8EE400A8DED79
:103E4000040A0798002800F0EB80FFE7089800902C
:103E500048B1FFE70098012865D0FFE700980228E5
:103E600000F08380A3E044F20040C5F60200006841
:103E700000F020010020B0EB511F31D0FFE744F2E9
:103E80000040C5F602000068C0F3C10149F200001D
:103E9000C0F2D030C84005909DED050AB8EE400A4A
:103EA0009DED071AB8EE411A80EE010A44F2304047
:103EB000C5F6020000686FF35F2001EE100AB8EE4D
:103EC000411A9DED042A9FED5E3A02EE031AB7EE09
:103ED000002A31EE021A20EE010A8DED030A21E0DC
:103EE0009DED070AB8EE401A9FED570A80EE010AD1
:103EF00044F23040C5F6020000686FF35F2001EE27
:103F0000100AB8EE411A9DED042A9FED4D3A02EEDB
:103F1000031AB7EE002A31EE021A20EE010A8DEDE7
:103F2000030AFFE765E09DED070AB8EE401A9FED32
:103F3000450A80EE010A44F23040C5F602000068EE
:103F40006FF35F2001EE100AB8EE411A9DED042ACE
:103F50009FED3B3A02EE031AB7EE002A31EE021A49
:103F600020EE010A8DED030A43E09DED070AB8EE4D
:103F7000401A9FED320A80EE010A44F23040C5F645
:103F8000020000686FF35F2001EE100AB8EE411ADC
:103F90009DED042A9FED2A3A02EE031AB7EE002A9D
:103FA00031EE021A20EE010A8DED030A21E09DEDAB
:103FB000070AB8EE401A9FED230A80EE010A44F288
:103FC0003040C5F6020000686FF35F2001EE100A72
:103FD000B8EE411A9DED042A9FED193A02EE031A3C
:103FE000B7EE002A31EE021A20EE010A8DED030A27
:103FF000FFE744F23040C5F60200006881B20120BC
:1040000000EB512009909DED030A9DED091AB8EED1
:10401000411A80EE010ABCEEC00A8DED020A02E0F0
:1040200000200290FFE705E040F60010C0F23D00DE
:104030000290FFE702980AB0704700BF20BCBE4B59
:10404000000000390024744A0024744C0000000071
:1040500080B58CB00A900A9828B9FFE701208DF846
:104060002F0000F001BD0A980078C007002800F07A
:10407000B980FFE744F21040C5F60200006800F086
:104080003800069044F22840C5F60200006805900A
:10409000069810280AD0FFE7069818281CD1FFE7D9
:1040A000059800F00300022816D1FFE744F2004013
:1040B000C5F60200006800F400310020B0EB514F5B
:1040C00009D0FFE70A98406828B9FFE701208DF87A
:1040D0002F0000F0C9BC84E0FFE70A984068B0F503
:1040E000803F09D1FFE744F20041C5F602010868AC
:1040F00040F48030086032E00A98406868B9FFE711
:1041000044F20041C5F60201086820F480300860DE
:10411000086820F48020086020E00A984068B0F524
:10412000A02F0DD1FFE744F20041C5F60201086857
:1041300040F480200860086840F4803008600CE09B
:1041400044F20041C5F60201086820F4803008609E
:10415000086820F480200860FFE7FFE7FFE7FFE73B
:104160000A984068F0B1FFE7FEF76EF90990FFE7A3
:1041700044F20040C5F60200006800F4003100205F
:10418000B0EB514F0DD1FFE7FEF75EF90999401AE8
:10419000652805D3FFE703208DF82F0000F064BCED
:1041A000E6E71DE0FEF750F90990FFE744F2004012
:1041B000C5F60200006800F400310020B0EB514F5A
:1041C0000DD0FFE7FEF740F90999401A652805D39D
:1041D000FFE703208DF82F0000F046BCE6E7FFE77D
:1041E000FFE7FFE70A9800788007002840F1C580C4
:1041F000FFE744F21040C5F60200006800F0380006
:10420000049044F22840C5F6020000680390049828
:1042100050B1FFE70498182850D1FFE79DF80C0033
:10422000800700284AD1FFE744F20040C5F60200AB
:10423000006800F004010020B0EB910F09D0FFE707
:104240000A98C06828B9FFE701208DF82F0000F018
:104250000BBC44F20041C5F60201086820F01900C9
:104260000A9AD26810430860FEF7EEF80990FFE75B
:1042700044F20040C5F60200006800F0040100208E
:10428000B0EB910F0CD1FFE7FEF7DEF80999401A69
:10429000032804D3FFE703208DF82F00E4E3E7E7CA
:1042A00044F20441C5F60201086820F0FE400A9A73
:1042B000126940EA02600860FFE75DE00A98C068A2
:1042C000A0B3FFE744F20041C5F60201086820F000
:1042D00019000A9AD26810430860FEF7B5F80990F1
:1042E000FFE744F20040C5F60200006800F0040158
:1042F0000020B0EB910F0CD1FFE7FEF7A5F809996C
:10430000401A032804D3FFE703208DF82F00ABE306
:10431000E7E744F20441C5F60201086820F0FE40D8
:104320000A9A126940EA0260086024E044F20041FF
:10433000C5F60201086820F001000860FEF784F865
:104340000990FFE744F20040C5F60200006800F063
:1043500004010020B0EB910F0CD0FFE7FEF774F8DA
:104360000999401A032804D3FFE703208DF82F0092
:104370007AE3E7E7FFE7FFE7FFE70A980078C00680
:10438000002840F1A080FFE744F21040C5F602008B
:10439000006800F03800029044F22840C5F60200A0
:1043A00000680190029808280AD0FFE702981828B0
:1043B0002BD1FFE7019800F00300012825D1FFE78A
:1043C00044F20040C5F60200006800F4807100204D
:1043D000B0EB112F09D0FFE70A98C069802804D0FC
:1043E000FFE701208DF82F003EE3FFE744F20C4188
:1043F000C5F60201086820F07C500A9A126A40EA69
:1044000002600860FFE7FFE75CE00A98C06998B3C4
:10441000FFE744F20041C5F60201086840F0800061
:104420000860FEF711F80990FFE744F20040C5F676
:104430000200006800F480710020B0EB112F0CD155
:10444000FFE7FEF701F80999401A032804D3FFE7B4
:1044500003208DF82F0007E3E7E7FFE744F20C4164
:10446000C5F60201086820F07C500A9A126A40EAF8
:1044700002600860FFE724E044F20041C5F6020153
:10448000086820F080000860FDF7DEFF0990FFE774
:1044900044F20040C5F60200006800F4807100207C
:1044A000B0EB112F0CD0FFE7FDF7CEFF0999401AB2
:1044B000032804D3FFE703208DF82F00D4E2E7E7B9
:1044C000FFE7FFE7FFE70A980078000700284FD5CD
:1044D000FFE70A98406928B3FFE744F27441C5F644
:1044E0000201086840F001000860FDF7ADFF099087
:1044F000FFE744F27440C5F60200006800F00201D4
:104500000020B0EB510F0CD1FFE7FDF79DFF09999B
:10451000401A032804D3FFE703208DF82F00A3E2FD
:10452000E7E724E044F27441C5F60201086820F090
:1045300001000860FDF788FF0990FFE744F274402E
:10454000C5F60200006800F002010020B0EB510F38
:104550000CD0FFE7FDF778FF0999401A032804D330
:10456000FFE703208DF82F007EE2E7E7FFE7FFE794
:104570000A980078800600284FD5FFE70A988069DE
:1045800028B3FFE744F20041C5F60201086840F491
:1045900080500860FDF758FF0990FFE744F20040A3
:1045A000C5F60200006800F400510020B0EB513F56
:1045B0000CD1FFE7FDF748FF0999401A032804D3FF
:1045C000FFE703208DF82F004EE2E7E724E044F2F6
:1045D0000041C5F60201086820F480500860FDF72C
:1045E00033FF0990FFE744F20040C5F6020000687F
:1045F00000F400510020B0EB513F0CD0FFE7FDF775
:1046000023FF0999401A032804D3FFE703208DF8FC
:104610002F0029E2E7E7FFE7FFE70A980078400765
:10462000002840F1A780FFE744F60001C5F602012B
:10463000086840F480700860FDF706FF0990FFE706
:1046400044F60000C5F602000068C00500280CD43E
:10465000FFE7FDF7F9FE0999401A652804D3FFE743
:1046600003208DF82F00FFE1EAE7FFE70A98806852
:10467000012809D1FFE744F27041C5F6020108683C
:1046800040F00100086031E00A98806868B9FFE7EF
:1046900044F27041C5F60201086820F0010008608C
:1046A000086820F0040008601FE00A988068052868
:1046B0000DD1FFE744F27041C5F60201086840F0F1
:1046C00004000860086840F0010008600CE044F253
:1046D0007041C5F60201086820F001000860086812
:1046E00020F004000860FFE7FFE7FFE7FFE70A9814
:1046F0008068F8B1FFE7FDF7A7FE0990FFE744F2F5
:104700007040C5F60200006800F002010020B0EB26
:10471000510F0ED1FFE7FDF797FE0999401A41F2BC
:104720008931884204D3FFE703208DF82F009BE1F5
:10473000E5E71EE0FDF788FE0990FFE744F27040D0
:10474000C5F60200006800F002010020B0EB510F36
:104750000ED0FFE7FDF778FE0999401A41F2893142
:10476000884204D3FFE703208DF82F007CE1E5E7C2
:10477000FFE7FFE70A98406A002800F07181FFE731
:1047800044F21040C5F60200006800F03800182816
:1047900000F0E080FFE70A98406A022840F0B48009
:1047A000FFE744F20041C5F60201086820F080707E
:1047B0000860FDF749FE0990FFE744F20040C5F6A6
:1047C0000200006800F000710020B0EB516F0CD0C7
:1047D000FFE7FDF739FE0999401A032804D3FFE7E4
:1047E00003208DF82F003FE1E7E7FFE744F228417F
:1047F000C5F60201086840F2F33290430A9B9A6AB8
:10480000DB6A42EA0312104308600A99086BD1F888
:1048100034C08B6BCA6B01386FF35F204FF60061B9
:10482000CFF6FF7101EB4C2189B208440021CFF68D
:10483000FF7101EB034101F4FE0108444FF07F4199
:1048400001EB026101F0FE41084444F23041C5F63B
:1048500002010860FFE744F22C41C5F60201009115
:10486000086820F00100086044F23442C5F60202F4
:1048700010684FF6F87398430A9B9B6C40EAC3009C
:104880001060086820F00C000A9A126C104308604F
:10489000086820F002000A9A526C10430860086809
:1048A00040F480300860086840F400300860086810
:1048B00040F480200860086840F00100086044F27D
:1048C0000041C5F60201086840F080700860FDF7FD
:1048D000BBFD0990FFE744F20040C5F60200006806
:1048E00000F000710020B0EB516F0CD1FFE7FDF735
:1048F000ABFD0999401A032804D3FFE703208DF884
:104900002F00B1E0E7E724E044F20041C5F60201E0
:10491000086820F080700860FDF796FD0990FFE7B9
:1049200044F20040C5F60200006800F0007100206B
:10493000B0EB516F0CD0FFE7FDF786FD0999401AE7
:10494000032804D3FFE703208DF82F008CE0E7E76E
:10495000FFE784E044F22840C5F6020000680890B2
:1049600044F23040C5F60200006807900A98406A99
:10497000012837D0FFE7089800F003000A99896AF8
:1049800088422FD1FFE7089800F47C710A98C06A2A
:10499000B0EB111F26D1FFE707986FF35F200A994C
:1049A000096B013988421DD1FFE7BDF81C100A9838
:1049B000406B0138B0EB512F14D1FFE7079800F49A
:1049C000FE010A98806B0138B0EB114F0AD1FFE766
:1049D000079800F0FE410A98C06B0138B0EB116FE8
:1049E00004D0FFE701208DF82F003DE044F2344071
:1049F000C5F60200006880B2C00808900A98806C72
:104A00000899884229D0FFE744F22C41C5F60201FB
:104A1000086820F001000860FDF716FD0990FFE727
:104A2000FDF712FD0999401A08B9FFE7F8E744F2CB
:104A30003441C5F6020108684FF6F87290430A9AAD
:104A4000926C40EAC200086044F22C41C5F60201B3
:104A5000086840F001000860FFE7FFE7FFE7FFE7B5
:104A600000208DF82F00FFE79DF82F000CB080BDCF
:104A700081B0009001B0704781B0009001B07047E4
:104A800081B0009001B0704785B003900291FFE7BC
:104A9000039890F83C00012804D1FFE702208DF82C
:104AA0001300ABE00399012081F83C00FFE7FFE72A
:104AB0000399022081F83D00039800684068019046
:104AC0000398006880680090039800680021C4F291
:104AD0000101884209D0FFE70398006840F20041D5
:104AE000C4F2010188420AD1FFE7019820F4700066
:104AF000019002984168019808430190FFE70198EE
:104B000020F070000190029801680198084301901C
:104B10000198039909684860039800680021C4F26D
:104B2000010188424ED0FFE703980068B0F1804F42
:104B300048D0FFE70398006840F20041C4F200014A
:104B400088423FD0FFE70398006840F60001C4F2B6
:104B50000001884236D0FFE70398006840F6004124
:104B6000C4F2000188422DD0FFE70398006840F2AC
:104B70000041C4F20101884224D0FFE70398006895
:104B800041F60001C4F2000188421BD0FFE7039800
:104B9000006844F20001C4F20101884212D0FFE72C
:104BA000039800684EF20001C4F20001884209D067
:104BB000FFE7039800684EF20041C4F2000188420A
:104BC0000ED1FFE7009820F08000009002988168E5
:104BD0000098084300900098039909688860FFE7EF
:104BE0000399012081F83D00FFE70399002081F837
:104BF0003C00FFE700208DF81300FFE79DF813004D
:104C000005B070470000000080B582B000900098A9
:104C100020B9FFE701208DF8070045E0009890F8E3
:104C20003D0040B9FFE70099002081F83C00009862
:104C300000F03EF8FFE70099022081F83D0000995E
:104C400051F8040B00F0C4FF0099012081F84800DE
:104C5000FFE70099012081F83E00009981F83F00AC
:104C6000009981F84000009981F84100009981F88D
:104C70004200009981F84300FFE7FFE70099012017
:104C800081F84400009981F84500009981F84600B8
:104C9000009981F84700FFE70099012081F83D0065
:104CA00000208DF80700FFE79DF8070002B080BDE7
:104CB00080B584B0039003980068B0F1804F19D19B
:104CC000FFE7FFE744F2E840C5F60200016841F063
:104CD00001010160006800F0010002900298FFE706
:104CE0001C20019005210022FDF7F6FC0198FDF73C
:104CF000E7FCFFE704B080BD83B00190019890F815
:104D00003D00012804D0FFE701208DF80B0083E06F
:104D10000199022081F83D0001980168C86840F0BF
:104D20000100C860019800680021C4F201018842B6
:104D30004ED0FFE701980068B0F1804F48D0FFE700
:104D40000198006840F20041C4F2000188423FD05F
:104D5000FFE70198006840F60001C4F200018842B4
:104D600036D0FFE70198006840F60041C4F2000128
:104D700088422DD0FFE70198006840F20041C4F25C
:104D80000101884224D0FFE70198006841F6000144
:104D9000C4F2000188421BD0FFE70198006844F28A
:104DA0000001C4F20101884212D0FFE701980068B7
:104DB0004EF20001C4F20001884209D0FFE70198D9
:104DC00000684EF20041C4F20001884219D1FFE7A9
:104DD0000198006880680721C0F201010840009036
:104DE000009806280CD0FFE70098B0F5803F07D068
:104DF000FFE701980168086840F001000860FFE7DC
:104E000006E001980168086840F001000860FFE7CB
:104E100000208DF80B00FFE79DF80B0003B07047F2
:104E200080B586B00490039100208DF80B00FFE759
:104E3000049890F83C00012804D1FFE702208DF887
:104E40001700D1E00499012081F83C00FFE7FFE75B
:104E50000499022081F83D00049800688068019060
:104E600001984FF68871CFF6CE71084001900198F5
:104E700020F47F40019001980499096888600398A4
:104E800000680090002800F09580FFE70098102847
:104E900000F09080FFE70098202800F08B80FFE76B
:104EA0000098302800F08680FFE70098402874D0F2
:104EB000FFE70098502856D0FFE7009860285FD0A1
:104EC000FFE7009870282AD0FFE70098B0F5805FD0
:104ED00024D0FFE70098B0F5005F35D0FFE70098D9
:104EE000B0F5801F66D0FFE70098B0F1101F61D0C9
:104EF000FFE700982021C0F2100188425AD0FFE756
:104F000000983021C0F21001884253D0FFE700988A
:104F10004021C0F2100188424CD052E055E0049884
:104F20000068039B5A689968DB6800F035FF0498B5
:104F3000006880680190019840F077000190019826
:104F400004990968886040E004980068039B5A68E7
:104F50009968DB6800F020FF04980168886840F4D5
:104F60008040886031E004980068039A5168D268F4
:104F700000F046FF04980068502100F029FF24E06B
:104F800004980068039A5168D26800F091FF049871
:104F90000068602100F01CFF17E004980068039A85
:104FA0005168D26800F02CFF04980068402100F09E
:104FB0000FFF0AE0049800680399096800F008FFF1
:104FC00003E001208DF80B00FFE70499012081F830
:104FD0003D00FFE70499002081F83C00FFE79DF8C1
:104FE0000B008DF81700FFE79DF8170006B080BD95
:104FF00081B0009001B0704780B584B003900398F1
:105000000068C068029003980068006901909DF8EC
:1050100004008007002824D5FFE79DF808008007DA
:1050200000281DD5FFE7039801686FF002000861B2
:10503000039901200877039800688069800720B1F0
:10504000FFE70398FFF7D4FF06E0039800F0FCF8B1
:10505000039800F0FDF8FFE7039900200877FFE7C9
:10506000FFE79DF804004007002825D5FFE79DF8DD
:105070000800400700281ED5FFE7039801686FF07D
:10508000040008610399022008770398006880698A
:1050900010F4407F04D0FFE70398FFF7A9FF06E074
:1050A000039800F0D1F8039800F0D2F8FFE70399D5
:1050B00000200877FFE7FFE79DF8040000070028BD
:1050C00024D5FFE79DF80800000700281DD5FFE75D
:1050D000039801686FF008000861039904200877BD
:1050E00003980068C069800720B1FFE70398FFF7C5
:1050F0007FFF06E0039800F0A7F8039800F0A8F8F7
:10510000FFE7039900200877FFE7FFE79DF8040019
:10511000C006002825D5FFE79DF80800C006002836
:105120001ED5FFE7039801686FF01000086103992E
:105130000820087703980068C06910F4407F04D005
:10514000FFE70398FFF754FF06E0039800F07CF8B0
:10515000039800F07DF8FFE7039900200877FFE748
:10516000FFE79DF80400C00778B1FFE79DF808004D
:10517000C00748B1FFE7039801686FF001000861BC
:10518000039800F069F8FFE7FFE7019800F080005E
:10519000802806D0FFE79DF805008006002810D57E
:1051A000FFE79DF808000006002809D5FFE70398EF
:1051B00001686FF4025008610398FFF75DFCFFE798
:1051C000FFE79DF80500C00780B1FFE79DF80800E4
:1051D0000006002809D5FFE7039801686FF4807086
:1051E00008610398FFF744FCFFE7FFE79DF8040020
:1051F0004006002810D5FFE79DF80800400600286B
:1052000009D5FFE7039801686FF040000861039833
:1052100000F03EF8FFE7FFE79DF804008006002855
:1052200010D5FFE79DF808008006002809D5FFE7A4
:10523000039801686FF0200008610398FFF720FCD5
:10524000FFE7FFE704B080BD81B0009001B0704778
:1052500081B0009001B0704780B582B00190019894
:1052600000680021C4F20101884203D1FFE7FDF785
:10527000F3F8FFE701980068B0F1804F03D1FFE732
:10528000FBF7B2F9FFE702B080BD000000000000AC
:1052900081B0009001B07047FFE7FEE7000000001A
:1052A00080B588B00020019007900690059004908A
:1052B000FDF7C6F90198012100918DF810108DF8C5
:1052C000110005901F228DF8182087228DF81920D3
:1052D0008DF81A008DF81B008DF81C108DF81D003C
:1052E0008DF81E108DF81F0004A80290FDF768F9D4
:1052F000009A019902988DF81120042203928DF8EA
:1053000018208DF819108DF81C108DF81E10FDF75F
:1053100057F90398FDF7A8F908B080BD0000000018
:1053200080B582B040F24810C2F2004000904AF2CC
:105330000041C4F200010160002201928260C2605B
:105340000274427482744FF0010CC0F814C005213D
:1053500081611D23C3610A210162C0F824C0C0F825
:1053600028C0C3620163426310238363C3634FF0A9
:105370000C0CC0F840C004214164C0F848C0C164AE
:10538000026541658265C365036642668166FCF716
:1053900087FB18B1FFE7FBF7FBFBFFE702B080BD1F
:1053A00082B0FFE744F2E040C5F60200016841F038
:1053B00080010160006800F0800001900198FFE723
:1053C000FFE744F2E040C5F60200016841F0020147
:1053D0000160006800F0020000900098FFE702B052
:1053E000704700000000000080B588B000210091E7
:1053F000079106910591049103910291019140F268
:105400003420C2F200404FF08042026063224260CA
:10541000816040F2E732C26001618161FFF7F4FB15
:1054200018B1FFE7FBF7B4FBFFE74FF4805004909F
:1054300040F23420C2F2004004A9FFF7F1FC18B199
:10544000FFE7FBF7A5FBFFE700200190039040F288
:105450003420C2F2004001A9FFF716FB18B1FFE7A4
:10546000FBF796FBFFE708B080BD000000000000DE
:10547000FFE7FEE700000000FFE7FEE70000000096
:1054800088B0079006910592079800F007000490F5
:105490000498C0F10700052803D3FFE7042001901A
:1054A00004E00498C0F107000190FFE70198039021
:1054B00004980430062803D8FFE70020009003E09A
:1054C000049803380090FFE700980290069803992B
:1054D000012202FA01F101390840029B9840059926
:1054E0009A40013A1140084308B07047000000009C
:1054F00082B00190019890ED030A90ED041A30EE0D
:10550000410A80ED050A019890F8240001460091B7
:1055100020B1FFE70098012824D04BE0019890EDDE
:10552000004A90ED010A90ED021A90ED052A90EDE7
:10553000063A32EE435A20EE020AA4EE050AB8EE0D
:10554000004AA3EE042A90ED073A32EE032AA1EEB8
:10555000020A80ED080A01998869C86101994869C1
:10556000886128E0019890ED051A90ED070AB6EEE3
:10557000002A20EE020AA1EE020A80ED070A019835
:1055800090ED003A90ED010A90ED021A90ED052A97
:1055900090ED074A20EE040AA3EE020A90ED063AC7
:1055A00032EE432AA1EE020A80ED080A0199486909
:1055B000886100E0FFE7019890ED080A02B07047AB
:1055C000704700000000000080B586B00490039191
:1055D00000208DF8070044F22840C5F6020000685C
:1055E00000F00300032804D1FFE701208DF8170025
:1055F000CBE044F20041C5F60201086820F080606B
:105600000860FCF721FF0290FFE744F20040C5F676
:105610000200006800F000610020B0EBD16F0CD0F8
:10562000FFE7FCF711FF0299401A032804D3FFE7B4
:1056300003208DF81700A8E0E7E7FFE744F22841D0
:10564000C5F60201086820F47C30049A126840EA2A
:105650000230086004994868D1F808C0CB680A692C
:1056600001386FF35F204FF60061CFF6FF7101EB59
:105670004C2189B208440021CFF6FF7101EB0341B0
:1056800001F4FE0108444FF07F4101EB026101F09B
:10569000FE41084444F23841C5F602010860FFE7C4
:1056A00044F22C41C5F602010091086820F0C000C8
:1056B000049A526910430860086820F02000049A98
:1056C000926910430860086820F01000086044F2F6
:1056D0003C42C5F6020210684FF6F8739843049BEB
:1056E000DB6940EAC3001060086840F01000086001
:1056F000039848B9FFE744F22C41C5F60201086857
:1057000040F40020086016E00398012809D1FFE763
:1057100044F22C41C5F60201086840F4801008608C
:1057200008E044F22C41C5F60201086840F400107C
:105730000860FFE7FFE744F20041C5F60201086890
:1057400040F080600860FCF77FFE0290FFE744F2C3
:105750000040C5F60200006800F000610020B0EBD8
:10576000D16F0CD1FFE7FCF76FFE0299401A0328B6
:1057700004D3FFE703208DF8170006E0E7E7FFE713
:105780009DF807008DF81700FFE79DF8170006B099
:1057900080BD00000000000080B586B00490039139
:1057A00000208DF8070044F22840C5F6020000688A
:1057B00000F00300032804D1FFE701208DF8170053
:1057C000CBE044F20041C5F60201086820F08050A9
:1057D0000860FCF739FE0290FFE744F20040C5F68E
:1057E0000200006800F000510020B0EB517F0CD0A7
:1057F000FFE7FCF729FE0299401A032804D3FFE7CC
:1058000003208DF81700A8E0E7E7FFE744F22841FE
:10581000C5F60201086820F07C70049A126840EA1C
:105820000250086004994868D1F808C0CB680A693A
:1058300001386FF35F204FF60061CFF6FF7101EB87
:105840004C2189B208440021CFF6FF7101EB0341DE
:1058500001F4FE0108444FF07F4101EB026101F0C9
:10586000FE41084444F24041C5F602010860FFE7EA
:1058700044F22C41C5F602010091086820F4406012
:10588000049A526910430860086820F40070049A72
:10589000926910430860086820F48070086044F240
:1058A0004442C5F6020210684FF6F8739843049B11
:1058B000DB6940EAC3001060086840F4807008604B
:1058C000039848B9FFE744F22C41C5F60201086885
:1058D00040F48000086016E00398012809D1FFE732
:1058E00044F22C41C5F60201086840F4000008604B
:1058F00008E044F22C41C5F60201086840F08070CF
:105900000860FFE7FFE744F20041C5F602010868BE
:1059100040F080500860FCF797FD0290FFE744F2EA
:105920000040C5F60200006800F000510020B0EB16
:10593000517F0CD1FFE7FCF787FD0299401A03283D
:1059400004D3FFE703208DF8170006E0E7E7FFE741
:105950009DF807008DF81700FFE79DF8170006B0C7
:1059600080BD000000000000704700000000000043
:10597000704700000000000080B59EB00BA84C21CD
:10598000FAF760FD002001900A90099008900790B6
:1059900006900590049003900220FCF7BDFEFFE7FF
:1059A0000020029044F61800C5F60200016821F4B8
:1059B00040410160006800F4404002900298FFE717
:1059C000FFE744F61800C5F60200006800F4005036
:1059D000B0F5005F01D0FFE7F3E701210B914FF431
:1059E00080300C9002201490159016902C22179263
:1059F0001891042119911A900C201B9000201C90E2
:105A00001D900BA8FEF724FB18B1FFE7FBF7C0F8C9
:105A1000FFE73F2003900321049100200590082018
:105A200006904020079008904FF4806209920A90F7
:105A300003A8FDF7BDFE18B1FFE7FBF7A9F8FFE7E4
:105A40001EB080BD000000004EF68851CEF200016D
:105A5000086840F47000086042F20000C5F20020BF
:105A6000006800F00F0006280AD8FFE742F20001A4
:105A7000C5F200210868072262F303000860FFE70F
:105A800044F20041C5F60201086840F001000860D8
:105A900044F21042C5F602020020106008684EF67B
:105AA0007F52CEF6F6221040086042F20000C5F2A6
:105AB0000020006800F00F0008280AD3FFE742F238
:105AC0000001C5F200210868072262F303000860A4
:105AD000FFE744F21841C5F602010020086044F2D5
